:100000000C9458000C9477000C9477000C947700B3
:100010000C9477000C9477000C9477000C94770084
:100020000C9477000C9477000C9477000C94770074
:100030000C9477000C9477000C9477000C94770064
:100040000C9477000C9477000C9477000C94770054
:100050000C9477000C9477000C9477000C94770044
:100060000C9477000C9477000C9477000C94770034
:100070000C9477000C9477000C9477000C94770024
:100080000C9477000C9477000C947700BC00D1009E
:10009000E800FF0016012D0144015B017201880197
:1000A0009A01AC01BE01D001E201F401060218027E
:1000B00011241FBECFEFD0E4DEBFCDBF11E0A0E022
:1000C000B1E0E0EDF4E000E00BBF02C007900D925C
:1000D000AE30B107D9F721E0AEE0B1E001C01D922A
:1000E000A131B207E1F70E942D020C9466020C9434
:1000F0000000CF93DF9300D01F92CDB7DEB7898386
:100100007B836A8389818A3031F48A819B81BC0137
:100110008DE00E94790080EC90E0FC018081882FC6
:1001200090E080729927892BB1F386EC90E02981C9
:10013000FC01208380E090E00F900F900F90DF9102
:10014000CF910895CF93DF93CDB7DEB780910F01A4
:1001500090911001CC01A0E0B0E040E050E021E13E
:1001600030E0841B950B2817390708F471C18A5BAE
:100170009F4FFC010C945D0280910E01882361F079
:1001800085E290E021E0FC01208389E090E09093FB
:10019000100180930F015DC11092100110920F01A8
:1001A00058C180910E01882361F085E290E023E040
:1001B000FC0120838AE090E09093100180930F016E
:1001C00048C181E090E09093100180930F0141C1FC
:1001D00080910E01882361F085E290E027E0FC0128
:1001E00020838BE090E09093100180930F0131C148
:1001F00082E090E09093100180930F012AC18091DA
:100200000E01882361F085E290E02EE0FC0120835E
:100210008CE090E09093100180930F011AC183E06D
:1002200090E09093100180930F0113C180910E0113
:10023000882361F085E290E02CE1FC0120838DE0D1
:1002400090E09093100180930F0103C184E090E04F
:100250009093100180930F01FCC080910E018823C0
:1002600061F085E290E028E3FC0120838EE090E0DD
:100270009093100180930F01ECC085E090E0909383
:10028000100180930F01E5C080910E01882361F079
:1002900085E290E020E3FC0120838FE090E09093E2
:1002A000100180930F01D5C086E090E0909310017B
:1002B00080930F01CEC080910E01882361F085E20A
:1002C00090E020E2FC01208380E190E09093100117
:1002D00080930F01BEC087E090E09093100180935F
:1002E0000F01B7C080910E01882359F085E290E09C
:1002F000FC01108281E190E09093100180930F0146
:10030000A8C088E090E09093100180930F01A1C0F5
:1003100080910E01882339F481E090E090931001E0
:1003200080930F0196C089E090E090931001809334
:100330000F018FC080910E01882339F482E090E094
:100340009093100180930F0184C08AE090E0909315
:10035000100180930F017DC080910E01882339F434
:1003600083E090E09093100180930F0172C08BE0C6
:1003700090E09093100180930F016BC080910E016B
:10038000882339F484E090E09093100180930F016A
:1003900060C08CE090E09093100180930F0159C0F1
:1003A00080910E01882339F485E090E0909310014C
:1003B00080930F014EC08DE090E0909310018093E8
:1003C0000F0147C080910E01882339F486E090E048
:1003D0009093100180930F013CC08EE090E09093C9
:1003E000100180930F0135C080910E01882339F4EC
:1003F00087E090E09093100180930F012AC08FE076
:1004000090E09093100180930F0123C080910E0122
:10041000882339F488E090E09093100180930F01D5
:1004200018C080E190E09093100180930F0111C0FB
:1004300080910E01882329F41092100110920F016F
:1004400008C081E190E09093100180930F0101C0FA
:1004500000000000DF91CF910895CF93DF93CDB7D7
:10046000DEB781E290E0FC01108282E290E02FEFA3
:10047000FC01208384E290E02FEFFC01208385E2E1
:1004800090E0FC01108285E290E0FC011082109265
:10049000100110920F0180E290E0FC018081882F12
:1004A00090E08170992721E0892B09F020E0822FCC
:1004B00080930E010E94A200EECFEE0FFF1F0024DA
:1004C000001C0BBE0790F691E02D0994F894FFCF25
:0E04D0000000000200000000790000000000A3
:00000001FF
