:100000000C9446000C9465000C9465000C946500FB
:100010000C9465000C9465000C9465000C946500CC
:100020000C9465000C9465000C9465000C946500BC
:100030000C9465000C9465000C9465000C946500AC
:100040000C9465000C9465000C9465000C9465009C
:100050000C9465000C9465000C9465000C9465008C
:100060000C9465000C9465000C9465000C9465007C
:100070000C9465000C9465000C9465000C9465006C
:100080000C9465000C9465000C94650011241FBE4F
:10009000CFEFD0E4DEBFCDBF11E0A0E0B1E0E8E9F2
:1000A000F7E000E00BBF02C007900D92AE30B10741
:1000B000D9F721E0AEE0B1E001C01D92A431B20752
:1000C000E1F70E9415020C94CA030C940000CF9330
:1000D000DF9300D01F92CDB7DEB789837B836A831D
:1000E00089818A3031F48A819B81BC018DE00E9434
:1000F000670080EC90E0FC018081882F90E08072A6
:100100009927892BB1F386EC90E02981FC012083AB
:1001100080E090E00F900F900F90DF91CF910895C5
:100120000F931F93CF93DF9300D000D0CDB7DEB7EE
:1001300069837A838B839C8380910E0190910F0158
:10014000A0911001B09111019C01AD0169817A81EA
:100150008B819C810E943602882309F477C020E0BD
:1001600030E0A90169817A818B819C810E943602ED
:10017000882351F481E990E021E930E0F901208100
:100180002870FC01208309C081E990E021E930E07A
:10019000F90120812360FC01208328E539E344E74D
:1001A0005FE369817A818B819C810E94360288237A
:1001B00044F488E990E02FEF3FEFFC013183208386
:1001C00034C020E034E244EF56E469817A818B81C7
:1001D0009C810E945803181634F488E990E0FC01D1
:1001E0001182108222C008E910E020E030E040E0F7
:1001F00053E469817A818B819C810E945D03DC01DB
:10020000CB019C01AD0160E074E284EF9AE40E94AE
:100210003B02DC01CB01BC01CD010E94AD02DC013F
:10022000CB010197F8019183808384E990E0FC0180
:100230001182108289819A81AB81BC8180930E01E9
:1002400090930F01A0931001B093110100000F9043
:100250000F900F900F90DF91CF911F910F91089504
:10026000CF93DF93CDB7DEB780E990E020E4FC01C7
:10027000208381E990E02BE0FC01208360E070E0C6
:10028000CB010E9490000000DF91CF910895CF93A1
:10029000DF93CDB7DEB780E990E0FC01108281E901
:1002A00090E0FC0110820000DF91CF910895CF9380
:1002B000DF93CDB7DEB780911201909113018130A9
:1002C000910509F44FC081309105A0F1823091056C
:1002D00009F462C0039709F079C080E290E0FC0164
:1002E0008081882F90E08095909587709927823043
:1002F000910551F08430910571F0019799F41092B5
:1003000013011092120115C081E090E09093130147
:10031000809312010EC082E090E0909313018093CD
:10032000120107C083E090E09093130180931201C3
:1003300000004CC080E290E0FC018081882F90E0BA
:100340008095909587709927019729F41092130151
:10035000109212013BC083E090E0909313018093D0
:10036000120134C080E290E0FC018081882F90E08F
:100370008095909587709927029739F481E090E0F5
:10038000909313018093120121C083E090E0909339
:100390001301809312011AC080E290E0FC01808179
:1003A000882F90E08095909587709927049739F46D
:1003B00082E090E0909313018093120106C083E0E5
:1003C00090E090931301809312010000809112013C
:1003D0009091130181309105B1F08130910560F069
:1003E00082309105B9F0039709F01BC060E070E01E
:1003F000CB010E94900015C064EA70ED82E893E49E
:100400000E9490000EC06BE774ED82E993E40E94B5
:10041000900007C064EA70ED84EA93E40E949000C3
:1004200000000000DF91CF910895CF93DF93CDB707
:10043000DEB781E290E0FC01108282E290E02FEFD3
:10044000FC01208384E290E02FEFFC01208385E211
:1004500090E0FC0110820E94300183E090E09093D4
:100460001301809312010E945701FDCF0E94E30205
:1004700008F481E008950E944F020C941E030E942C
:10048000170358F00E94100340F029F45F3F29F051
:100490000C94070351110C9452030C940D030E9409
:1004A0002F0368F39923B1F3552391F3951B550B53
:1004B000BB27AA2762177307840738F09F5F5F4F37
:1004C000220F331F441FAA1FA9F335D00E2E3AF076
:1004D000E0E832D091505040E695001CCAF72BD08E
:1004E000FE2F29D0660F771F881FBB1F26173707DF
:1004F0004807AB07B0E809F0BB0B802DBF01FF2711
:1005000093585F4F3AF09E3F510578F00C940703E3
:100510000C9452035F3FE4F3983ED4F386957795AD
:100520006795B795F7959F5FC9F7880F911D9695C9
:10053000879597F90895E1E0660F771F881FBB1F25
:10054000621773078407BA0720F0621B730B840BD2
:10055000BA0BEE1F88F7E09508950E94B4026894E4
:10056000B1110C94520308950E94370388F09F57ED
:1005700098F0B92F9927B751B0F0E1F0660F771FC7
:10058000881F991F1AF0BA95C9F714C0B13091F0BD
:100590000E945103B1E008950C945103672F782F06
:1005A0008827B85F39F0B93FCCF386957795679582
:1005B000B395D9F73EF490958095709561957F4FEE
:1005C0008F4F9F4F0895990F0008550FAA0BE0E831
:1005D000FEEF16161706E807F907C0F01216130605
:1005E000E407F50798F0621B730B840B950B39F445
:1005F0000A2661F0232B242B252B21F408950A26AB
:1006000009F4A140A6958FEF811D811D089597F9EA
:100610009F6780E870E060E008959FEF80EC0895A8
:1006200000240A94161617061806090608950024D1
:100630000A9412161306140605060895092E03944B
:10064000000C11F4882352F0BB0F40F4BF2B11F4BF
:1006500060FF04C06F5F7F4F8F4F9F4F089557FD1E
:100660009058440F551F59F05F3F71F04795880F20
:1006700097FB991F61F09F3F79F0879508951216B7
:1006800013061406551FF2CF4695F1DF08C0161663
:1006900017061806991FF1CF869571056105089414
:1006A0000895E894BB2766277727CB0197F908952B
:1006B0000E94E30208F48FEF08950E9470030C94E7
:1006C0001E030E94100338F00E94170320F09523A8
:1006D00011F00C9407030C940D0311240C94520395
:1006E0000E942F0370F3959FC1F3950F50E0551FA3
:1006F000629FF001729FBB27F00DB11D639FAA2777
:10070000F00DB11DAA1F649F6627B00DA11D661FC5
:10071000829F2227B00DA11D621F739FB00DA11DE6
:10072000621F839FA00D611D221F749F3327A00DA0
:10073000611D231F849F600D211D822F762F6A2F3C
:1007400011249F5750409AF0F1F088234AF0EE0FA1
:10075000FF1FBB1F661F771F881F91505040A9F7CE
:100760009E3F510580F00C9407030C9452035F3FA9
:10077000E4F3983ED4F3869577956795B795F7950A
:10078000E7959F5FC1F7FE2B880F911D9695879582
:0807900097F90895F894FFCFDA
:0E0798000000000200000000670000000000EA
:00000001FF
