:100000000C9446000C9465000C9465000C946500FB
:100010000C9465000C9465000C9465000C946500CC
:100020000C9465000C9465000C9465000C946500BC
:100030000C9465000C94DE000C9465000C94650033
:100040000C9465000C9465000C9465000C9465009C
:100050000C9465000C9465000C9465000C9465008C
:100060000C9465000C9465000C9465000C9465007C
:100070000C9465000C9465000C9465000C9465006C
:100080000C9465000C9465000C94650011241FBE4F
:10009000CFEFD0E4DEBFCDBF11E0A0E0B1E0E6E7F6
:1000A000F6E000E00BBF02C007900D92A231B1074D
:1000B000D9F721E0A2E1B1E001C01D92AB31B20756
:1000C000E1F70E9400030C9439030C940000CF93D5
:1000D000DF9300D01F92CDB7DEB789837B836A831D
:1000E00089818A3031F48A819B81BC018DE00E9434
:1000F000670080EC90E0FC018081882F90E08072A6
:100100009927892BB1F386EC90E02981FC012083AB
:1001100080E090E00F900F900F90DF91CF910895C5
:10012000CF93DF93CDB7DEB781E890E02BE0FC0101
:10013000208388E890E02DE730E0FC0131832083C4
:100140008FE690E022E0FC01208384E890E0FC014F
:100150001182108280910E0190910F01A0911001E7
:10016000B09111018093130190931401A093150194
:10017000B09316018FE590E02FE530E0F901208182
:100180002068FC0120830000DF91CF910895CF9378
:10019000DF93CDB7DEB781E890E0FC01108200006C
:1001A000DF91CF910895CF93DF93CDB7DEB781E094
:1001B000809312010000DF91CF9108951F920F925A
:1001C00000905F000F92112400905B000F922F931C
:1001D0003F934F935F936F937F938F939F93AF93CF
:1001E000BF93EF93FF93CF93DF93CDB7DEB78091AB
:1001F000130190911401A0911501B091160101977E
:10020000A109B1098093130190931401A0931501E2
:10021000B09316018091130190911401A0911501E2
:10022000B0911601892B8A2B8B2B91F40E94D3005D
:1002300080910E0190910F01A0911001B0911101D8
:100240008093130190931401A0931501B0931601AC
:100250000000DF91CF91FF91EF91BF91AF919F91FE
:100260008F917F916F915F914F913F912F910F905F
:1002700000925B000F9000925F000F901F90189506
:10028000CF93DF9300D000D0CDB7DEB769837A83F8
:100290008B839C8389819A81AB81BC8180930E0181
:1002A00090930F01A0931001B093110180910E0162
:1002B00090910F01A0911001B09111018093130151
:1002C00090931401A0931501B093160100000F90B4
:1002D0000F900F900F90DF91CF910895CF93DF9300
:1002E000CDB7DEB78091190190911A018230910546
:1002F00009F488C08330910530F4009781F00197AC
:1003000009F44FC017C18430910509F4B1C084309D
:10031000910508F4A8C0059709F4DBC00BC180E281
:1003200090E0FC018081882F90E081709927892BD3
:1003300089F480E290E0FC018081882F90E0827057
:100340009927892B39F483E090E090931A018093E8
:100350001901F0C080E290E0FC018081882F90E0DC
:1003600081709927892B39F481E090E090931A01EC
:1003700080931901DFC080E290E0FC018081882F2A
:1003800090E082709927892B39F482E090E0909375
:100390001A0180931901CEC010921A01109219010E
:1003A000C9C080E290E0FC018081882F90E08170DC
:1003B0009927892B89F480E290E0FC018081882FC5
:1003C00090E082709927892B39F483E090E0909334
:1003D0001A0180931901AEC080E290E0FC01808197
:1003E000882F90E081709927892B39F484E090E080
:1003F00090931A01809319019DC010921A011092D6
:10040000190198C080E290E0FC018081882F90E083
:1004100081709927892B89F480E290E0FC0180812A
:10042000882F90E082709927892B39F483E090E03F
:1004300090931A01809319017DC080E290E0FC0145
:100440008081882F90E082709927892B39F485E08C
:1004500090E090931A01809319016CC010921A01D8
:100460001092190167C010921A011092190162C00E
:1004700080E290E0FC018081882F90E081709927D4
:10048000892B89F480E290E0FC018081882F90E044
:1004900082709927892B39F483E090E090931A01B8
:1004A0008093190147C080E290E0FC018081882F91
:1004B00090E081709927892B39F484E090E0909343
:1004C0001A018093190136C010921A011092190175
:1004D00031C080E290E0FC018081882F90E0817043
:1004E0009927892B89F480E290E0FC018081882F94
:1004F00090E082709927892B39F483E090E0909303
:100500001A018093190115C080E290E0FC018081FE
:10051000882F90E082709927892B39F485E090E04C
:1005200090931A018093190104C010921A0110923D
:10053000190100008091190190911A0182309105F2
:10054000F9F08330910528F4009761F0019769F084
:1005500053C08430910509F184309105D8F0059796
:1005600091F14AC01092180147C08091170189305B
:1005700008F03FC0809117018F5F8093170139C049
:10058000809117018823B9F18091170181508093E0
:10059000170131C0109217012FC0809118018A30C5
:1005A00030F4809118018F5F8093180125C08091ED
:1005B0001701893028F4809117018F5F809317010C
:1005C0001092180119C0809118018A3030F480917E
:1005D00018018F5F809318010FC080911701882345
:1005E00029F0809117018150809317011092180112
:1005F00003C0000001C000000000DF91CF9108950A
:10060000CF93DF93CDB7DEB781E290E0FC0110829B
:1006100084E290E02FEFFC01208382E290E02FEF54
:10062000FC01208385E290E0FC01108210921A0107
:100630001092190187E08093170164E670E080E072
:1006400090E00E9440010E94900010921A011092C6
:1006500019010E946E010000809112018823E1F3CC
:100660001092120185E290E020911701FC01208395
:06067000F0CFF894FFCF6B
:10067600000000020000000067000000000001000A
:02068600000072
:00000001FF
