:100000000C9446000C945D000C945D000C945D0013
:100010000C945D000C945D000C945D000C945D00EC
:100020000C945D000C945D000C945D000C945D00DC
:100030000C945D000C945D000C945D000C945D00CC
:100040000C945D000C945D000C945D000C945D00BC
:100050000C945D000C945D000C945D000C945D00AC
:100060000C945D000C945D000C945D000C945D009C
:100070000C945D000C945D000C945D000C945D008C
:100080000C945D000C945D000C945D0011241FBE67
:10009000CFEFD0E4DEBFCDBF11E0A0E0B1E0E0EAF9
:1000A000F2E000E00BBF02C007900D92AE30B10746
:1000B000D9F70E9499000C944E010C940000CF9344
:1000C000DF9300D01F92CDB7DEB789837B836A832D
:1000D00089818A3031F48A819B81BC018DE00E9444
:1000E0005F0080EC90E0FC018081882F90E08072BE
:1000F0009927892BB1F386EC90E02981FC012083BC
:1001000080E090E00F900F900F90DF91CF910895D5
:10011000CF93DF93CDB7DEB78AE790E02AE730E0F0
:10012000F9012081206EFC0120830000DF91CF9136
:100130000895CF93DF9300D000D01F92CDB7DEB7E4
:1001400081E290E0FC01108282E290E02FEFFC015E
:10015000208384E290E02FEFFC01208385E290E091
:10016000FC0110828AE290E02FEFFC0120838BE2F9
:1001700090E0FC0110828CE390E09B838A831982DB
:100180000E948800198288E790E0FC0180819181BB
:100190009D838C832C813D818A819B81281739071F
:1001A00018F08981816089838A819B819C01220F5B
:1001B000331F8C819D818217930718F0898182609B
:1001C00089832A813B81C901880F991F280F391F14
:1001D0008C819D818217930718F0898184608983BF
:1001E0008A819B819C01220F331F220F331F8C8138
:1001F0009D818217930718F08981886089832A81FD
:100200003B81C901880F991F880F991F280F391F3B
:100210008C819D818217930718F089818061898381
:100220002A813B81C901880F991F820F931F880F74
:10023000991F9C018C819D818217930718F08981F9
:10024000806289832A813B81C901880F991F880FA9
:10025000991F880F991FAC01421B530B9A018C8187
:100260009D818217930718F08981806489838A8130
:100270009B819C01220F331F220F331F220F331F3C
:100280008C819D818217930718F08981806889830A
:1002900085E290E02981FC01208374CFF894FFCFA0
:0E02A00000000002000000005F0000000000EF
:00000001FF
